{"contracts/SmartOracle.sol":{"SmartOracle":{"abi":[{"inputs":[{"internalType":"address","name":"_gelatoMsgSender","type":"address"},{"internalType":"address","name":"pythContract","type":"address"}],"stateMutability":"nonpayable","type":"constructor"},{"anonymous":false,"inputs":[{"indexed":true,"internalType":"address","name":"previousOwner","type":"address"},{"indexed":true,"internalType":"address","name":"newOwner","type":"address"}],"name":"OwnershipTransferred","type":"event"},{"anonymous":false,"inputs":[{"indexed":false,"internalType":"address","name":"account","type":"address"}],"name":"Paused","type":"event"},{"anonymous":false,"inputs":[{"indexed":false,"internalType":"address","name":"account","type":"address"}],"name":"Unpaused","type":"event"},{"inputs":[],"name":"currentPrice","outputs":[{"internalType":"int64","name":"price","type":"int64"},{"internalType":"uint256","name":"lastUpdateTimestamp","type":"uint256"}],"stateMutability":"view","type":"function"},{"inputs":[],"name":"gelatoMsgSender","outputs":[{"internalType":"address","name":"","type":"address"}],"stateMutability":"view","type":"function"},{"inputs":[],"name":"getPrice","outputs":[{"components":[{"internalType":"int64","name":"price","type":"int64"},{"internalType":"uint256","name":"lastUpdateTimestamp","type":"uint256"}],"internalType":"struct SmartOracle.Price","name":"","type":"tuple"}],"stateMutability":"view","type":"function"},{"inputs":[],"name":"owner","outputs":[{"internalType":"address","name":"","type":"address"}],"stateMutability":"view","type":"function"},{"inputs":[],"name":"pause","outputs":[],"stateMutability":"nonpayable","type":"function"},{"inputs":[],"name":"paused","outputs":[{"internalType":"bool","name":"","type":"bool"}],"stateMutability":"view","type":"function"},{"inputs":[],"name":"renounceOwnership","outputs":[],"stateMutability":"nonpayable","type":"function"},{"inputs":[],"name":"tokenIds","outputs":[{"internalType":"uint256","name":"_value","type":"uint256"}],"stateMutability":"view","type":"function"},{"inputs":[{"internalType":"address","name":"newOwner","type":"address"}],"name":"transferOwnership","outputs":[],"stateMutability":"nonpayable","type":"function"},{"inputs":[],"name":"unpause","outputs":[],"stateMutability":"nonpayable","type":"function"},{"inputs":[{"internalType":"bytes[]","name":"updatePriceData","type":"bytes[]"}],"name":"updatePrice","outputs":[],"stateMutability":"nonpayable","type":"function"},{"inputs":[],"name":"withdraw","outputs":[{"internalType":"bool","name":"","type":"bool"}],"stateMutability":"nonpayable","type":"function"},{"stateMutability":"payable","type":"receive"}],"devdoc":{"kind":"dev","methods":{"owner()":{"details":"Returns the address of the current owner."},"paused()":{"details":"Returns true if the contract is paused, and false otherwise."},"renounceOwnership()":{"details":"Leaves the contract without owner. It will not be possible to call `onlyOwner` functions. Can only be called by the current owner. NOTE: Renouncing ownership will leave the contract without an owner, thereby disabling any functionality that is only available to the owner."},"transferOwnership(address)":{"details":"Transfers ownership of the contract to a new account (`newOwner`). Can only be called by the current owner."}},"version":1},"evm":{"bytecode":{"linkReferences":{},"object":"60a060405234801561001057600080fd5b50604051610be0380380610be083398101604081905261002f916100d9565b6100383361006d565b6000805460ff60a01b191690556001600160a01b03918216608052600180546001600160a01b0319169190921617905561010c565b600080546001600160a01b038381166001600160a01b0319831681178455604051919092169283917f8be0079c531659141344cd1fd0a4f28419497f9722a3daafe3b4186f6b6457e09190a35050565b80516001600160a01b03811681146100d457600080fd5b919050565b600080604083850312156100ec57600080fd5b6100f5836100bd565b9150610103602084016100bd565b90509250929050565b608051610ab261012e60003960008181610250015261029d0152610ab26000f3fe6080604052600436106100ab5760003560e01c80638456cb59116100645780638456cb59146101715780638da5cb5b1461018657806398d5fdca146101b85780639d1b464a14610206578063c54430821461023e578063f2fde38b1461027257600080fd5b80632592c0bf146100b75780633ccfd60b146100d95780633f4ba83a146101035780635c975abb14610118578063714cff5614610137578063715018a61461015c57600080fd5b366100b257005b600080fd5b3480156100c357600080fd5b506100d76100d23660046107f1565b610292565b005b3480156100e557600080fd5b506100ee6104c4565b60405190151581526020015b60405180910390f35b34801561010f57600080fd5b506100d761051e565b34801561012457600080fd5b50600054600160a01b900460ff166100ee565b34801561014357600080fd5b5060025461014e9081565b6040519081526020016100fa565b34801561016857600080fd5b506100d7610530565b34801561017d57600080fd5b506100d7610542565b34801561019257600080fd5b506000546001600160a01b03165b6040516001600160a01b0390911681526020016100fa565b3480156101c457600080fd5b5060408051808201825260008082526020918201528151808301835260035460070b8082526004549183019182528351908152905191810191909152016100fa565b34801561021257600080fd5b506003546004546102249160070b9082565b6040805160079390930b83526020830191909152016100fa565b34801561024a57600080fd5b506101a07f000000000000000000000000000000000000000000000000000000000000000081565b34801561027e57600080fd5b506100d761028d36600461090a565b610552565b336001600160a01b037f0000000000000000000000000000000000000000000000000000000000000000161461030f5760405162461bcd60e51b815260206004820181905260248201527f4f6e6c79206465646963617465642067656c61746f206d73672e73656e64657260448201526064015b60405180910390fd5b60015460405163d47eed4560e01b81526000916001600160a01b03169063d47eed459061034090859060040161093a565b602060405180830381865afa15801561035d573d6000803e3d6000fd5b505050506040513d601f19601f8201168201806040525081019061038191906109cc565b600154604051631df3cbc560e31b81529192506001600160a01b03169063ef9e5e289083906103b490869060040161093a565b6000604051808303818588803b1580156103cd57600080fd5b505af11580156103e1573d6000803e3d6000fd5b50506001546040516331d98b3f60e01b81527fca80ba6dc32e08d06f1aa886011eed1d77c77be9eb761cc10d72b7d0a2fd57a6600482018190529450600093506001600160a01b0390911691506331d98b3f90602401608060405180830381865afa158015610454573d6000803e3d6000fd5b505050506040513d601f19601f8201168201806040525081019061047891906109e5565b604080518082019091528151600781900b825260609092015160209091018190526003805467ffffffffffffffff191667ffffffffffffffff9093169290921790915560045550505050565b60006104ce6105cb565b604051600090339047908381818185875af1925050503d8060008114610510576040519150601f19603f3d011682016040523d82523d6000602084013e610515565b606091505b50909250505090565b6105266105cb565b61052e610625565b565b6105386105cb565b61052e600061067a565b61054a6105cb565b61052e6106ca565b61055a6105cb565b6001600160a01b0381166105bf5760405162461bcd60e51b815260206004820152602660248201527f4f776e61626c653a206e6577206f776e657220697320746865207a65726f206160448201526564647265737360d01b6064820152608401610306565b6105c88161067a565b50565b6000546001600160a01b0316331461052e5760405162461bcd60e51b815260206004820181905260248201527f4f776e61626c653a2063616c6c6572206973206e6f7420746865206f776e65726044820152606401610306565b61062d61070d565b6000805460ff60a01b191690557f5db9ee0a495bf2e6ff9c91a7834c1ba4fdd244a5e8aa4e537bd38aeae4b073aa335b6040516001600160a01b03909116815260200160405180910390a1565b600080546001600160a01b038381166001600160a01b0319831681178455604051919092169283917f8be0079c531659141344cd1fd0a4f28419497f9722a3daafe3b4186f6b6457e09190a35050565b6106d261075d565b6000805460ff60a01b1916600160a01b1790557f62e78cea01bee320cd4e420270b5ea74000d11b0c9f74754ebdbfc544b05a25861065d3390565b600054600160a01b900460ff1661052e5760405162461bcd60e51b815260206004820152601460248201527314185d5cd8589b194e881b9bdd081c185d5cd95960621b6044820152606401610306565b600054600160a01b900460ff161561052e5760405162461bcd60e51b815260206004820152601060248201526f14185d5cd8589b194e881c185d5cd95960821b6044820152606401610306565b634e487b7160e01b600052604160045260246000fd5b604051601f8201601f1916810167ffffffffffffffff811182821017156107e9576107e96107aa565b604052919050565b6000602080838503121561080457600080fd5b823567ffffffffffffffff8082111561081c57600080fd5b8185019150601f868184011261083157600080fd5b823582811115610843576108436107aa565b8060051b6108528682016107c0565b918252848101860191868101908a84111561086c57600080fd5b87870192505b838310156108fc5782358681111561088a5760008081fd5b8701603f81018c1361089c5760008081fd5b888101356040888211156108b2576108b26107aa565b6108c3828901601f19168c016107c0565b8281528e828486010111156108d85760008081fd5b828285018d83013760009281018c0192909252508352509187019190870190610872565b9a9950505050505050505050565b60006020828403121561091c57600080fd5b81356001600160a01b038116811461093357600080fd5b9392505050565b6000602080830181845280855180835260408601915060408160051b87010192508387016000805b838110156109be57888603603f1901855282518051808852835b81811015610997578281018a01518982018b0152890161097c565b508781018901849052601f01601f1916909601870195509386019391860191600101610962565b509398975050505050505050565b6000602082840312156109de57600080fd5b5051919050565b6000608082840312156109f757600080fd5b6040516080810167ffffffffffffffff8282108183111715610a1b57610a1b6107aa565b81604052845191508160070b8214610a3257600080fd5b9082526020840151908082168214610a4957600080fd5b5060208201526040830151600381900b8114610a6457600080fd5b6040820152606092830151928101929092525091905056fea264697066735822122043a2e9477dd76c58033e3a0e3c5b332ae16f570f315171b23d6061f55502fe4864736f6c63430008110033","opcodes":"PUSH1 0xA0 PUSH1 0x40 MSTORE CALLVALUE DUP1 ISZERO PUSH2 0x10 JUMPI PUSH1 0x0 DUP1 REVERT JUMPDEST POP PUSH1 0x40 MLOAD PUSH2 0xBE0 CODESIZE SUB DUP1 PUSH2 0xBE0 DUP4 CODECOPY DUP2 ADD PUSH1 0x40 DUP2 SWAP1 MSTORE PUSH2 0x2F SWAP2 PUSH2 0xD9 JUMP JUMPDEST PUSH2 0x38 CALLER PUSH2 0x6D JUMP JUMPDEST PUSH1 0x0 DUP1 SLOAD PUSH1 0xFF PUSH1 0xA0 SHL NOT AND SWAP1 SSTORE PUSH1 0x1 PUSH1 0x1 PUSH1 0xA0 SHL SUB SWAP2 DUP3 AND PUSH1 0x80 MSTORE PUSH1 0x1 DUP1 SLOAD PUSH1 0x1 PUSH1 0x1 PUSH1 0xA0 SHL SUB NOT AND SWAP2 SWAP1 SWAP3 AND OR SWAP1 SSTORE PUSH2 0x10C JUMP JUMPDEST PUSH1 0x0 DUP1 SLOAD PUSH1 0x1 PUSH1 0x1 PUSH1 0xA0 SHL SUB DUP4 DUP2 AND PUSH1 0x1 PUSH1 0x1 PUSH1 0xA0 SHL SUB NOT DUP4 AND DUP2 OR DUP5 SSTORE PUSH1 0x40 MLOAD SWAP2 SWAP1 SWAP3 AND SWAP3 DUP4 SWAP2 PUSH32 0x8BE0079C531659141344CD1FD0A4F28419497F9722A3DAAFE3B4186F6B6457E0 SWAP2 SWAP1 LOG3 POP POP JUMP JUMPDEST DUP1 MLOAD PUSH1 0x1 PUSH1 0x1 PUSH1 0xA0 SHL SUB DUP2 AND DUP2 EQ PUSH2 0xD4 JUMPI PUSH1 0x0 DUP1 REVERT JUMPDEST SWAP2 SWAP1 POP JUMP JUMPDEST PUSH1 0x0 DUP1 PUSH1 0x40 DUP4 DUP6 SUB SLT ISZERO PUSH2 0xEC JUMPI PUSH1 0x0 DUP1 REVERT JUMPDEST PUSH2 0xF5 DUP4 PUSH2 0xBD JUMP JUMPDEST SWAP2 POP PUSH2 0x103 PUSH1 0x20 DUP5 ADD PUSH2 0xBD JUMP JUMPDEST SWAP1 POP SWAP3 POP SWAP3 SWAP1 POP JUMP JUMPDEST PUSH1 0x80 MLOAD PUSH2 0xAB2 PUSH2 0x12E PUSH1 0x0 CODECOPY PUSH1 0x0 DUP2 DUP2 PUSH2 0x250 ADD MSTORE PUSH2 0x29D ADD MSTORE PUSH2 0xAB2 PUSH1 0x0 RETURN INVALID PUSH1 0x80 PUSH1 0x40 MSTORE PUSH1 0x4 CALLDATASIZE LT PUSH2 0xAB JUMPI PUSH1 0x0 CALLDATALOAD PUSH1 0xE0 SHR DUP1 PUSH4 0x8456CB59 GT PUSH2 0x64 JUMPI DUP1 PUSH4 0x8456CB59 EQ PUSH2 0x171 JUMPI DUP1 PUSH4 0x8DA5CB5B EQ PUSH2 0x186 JUMPI DUP1 PUSH4 0x98D5FDCA EQ PUSH2 0x1B8 JUMPI DUP1 PUSH4 0x9D1B464A EQ PUSH2 0x206 JUMPI DUP1 PUSH4 0xC5443082 EQ PUSH2 0x23E JUMPI DUP1 PUSH4 0xF2FDE38B EQ PUSH2 0x272 JUMPI PUSH1 0x0 DUP1 REVERT JUMPDEST DUP1 PUSH4 0x2592C0BF EQ PUSH2 0xB7 JUMPI DUP1 PUSH4 0x3CCFD60B EQ PUSH2 0xD9 JUMPI DUP1 PUSH4 0x3F4BA83A EQ PUSH2 0x103 JUMPI DUP1 PUSH4 0x5C975ABB EQ PUSH2 0x118 JUMPI DUP1 PUSH4 0x714CFF56 EQ PUSH2 0x137 JUMPI DUP1 PUSH4 0x715018A6 EQ PUSH2 0x15C JUMPI PUSH1 0x0 DUP1 REVERT JUMPDEST CALLDATASIZE PUSH2 0xB2 JUMPI STOP JUMPDEST PUSH1 0x0 DUP1 REVERT JUMPDEST CALLVALUE DUP1 ISZERO PUSH2 0xC3 JUMPI PUSH1 0x0 DUP1 REVERT JUMPDEST POP PUSH2 0xD7 PUSH2 0xD2 CALLDATASIZE PUSH1 0x4 PUSH2 0x7F1 JUMP JUMPDEST PUSH2 0x292 JUMP JUMPDEST STOP JUMPDEST CALLVALUE DUP1 ISZERO PUSH2 0xE5 JUMPI PUSH1 0x0 DUP1 REVERT JUMPDEST POP PUSH2 0xEE PUSH2 0x4C4 JUMP JUMPDEST PUSH1 0x40 MLOAD SWAP1 ISZERO ISZERO DUP2 MSTORE PUSH1 0x20 ADD JUMPDEST PUSH1 0x40 MLOAD DUP1 SWAP2 SUB SWAP1 RETURN JUMPDEST CALLVALUE DUP1 ISZERO PUSH2 0x10F JUMPI PUSH1 0x0 DUP1 REVERT JUMPDEST POP PUSH2 0xD7 PUSH2 0x51E JUMP JUMPDEST CALLVALUE DUP1 ISZERO PUSH2 0x124 JUMPI PUSH1 0x0 DUP1 REVERT JUMPDEST POP PUSH1 0x0 SLOAD PUSH1 0x1 PUSH1 0xA0 SHL SWAP1 DIV PUSH1 0xFF AND PUSH2 0xEE JUMP JUMPDEST CALLVALUE DUP1 ISZERO PUSH2 0x143 JUMPI PUSH1 0x0 DUP1 REVERT JUMPDEST POP PUSH1 0x2 SLOAD PUSH2 0x14E SWAP1 DUP2 JUMP JUMPDEST PUSH1 0x40 MLOAD SWAP1 DUP2 MSTORE PUSH1 0x20 ADD PUSH2 0xFA JUMP JUMPDEST CALLVALUE DUP1 ISZERO PUSH2 0x168 JUMPI PUSH1 0x0 DUP1 REVERT JUMPDEST POP PUSH2 0xD7 PUSH2 0x530 JUMP JUMPDEST CALLVALUE DUP1 ISZERO PUSH2 0x17D JUMPI PUSH1 0x0 DUP1 REVERT JUMPDEST POP PUSH2 0xD7 PUSH2 0x542 JUMP JUMPDEST CALLVALUE DUP1 ISZERO PUSH2 0x192 JUMPI PUSH1 0x0 DUP1 REVERT JUMPDEST POP PUSH1 0x0 SLOAD PUSH1 0x1 PUSH1 0x1 PUSH1 0xA0 SHL SUB AND JUMPDEST PUSH1 0x40 MLOAD PUSH1 0x1 PUSH1 0x1 PUSH1 0xA0 SHL SUB SWAP1 SWAP2 AND DUP2 MSTORE PUSH1 0x20 ADD PUSH2 0xFA JUMP JUMPDEST CALLVALUE DUP1 ISZERO PUSH2 0x1C4 JUMPI PUSH1 0x0 DUP1 REVERT JUMPDEST POP PUSH1 0x40 DUP1 MLOAD DUP1 DUP3 ADD DUP3 MSTORE PUSH1 0x0 DUP1 DUP3 MSTORE PUSH1 0x20 SWAP2 DUP3 ADD MSTORE DUP2 MLOAD DUP1 DUP4 ADD DUP4 MSTORE PUSH1 0x3 SLOAD PUSH1 0x7 SIGNEXTEND DUP1 DUP3 MSTORE PUSH1 0x4 SLOAD SWAP2 DUP4 ADD SWAP2 DUP3 MSTORE DUP4 MLOAD SWAP1 DUP2 MSTORE SWAP1 MLOAD SWAP2 DUP2 ADD SWAP2 SWAP1 SWAP2 MSTORE ADD PUSH2 0xFA JUMP JUMPDEST CALLVALUE DUP1 ISZERO PUSH2 0x212 JUMPI PUSH1 0x0 DUP1 REVERT JUMPDEST POP PUSH1 0x3 SLOAD PUSH1 0x4 SLOAD PUSH2 0x224 SWAP2 PUSH1 0x7 SIGNEXTEND SWAP1 DUP3 JUMP JUMPDEST PUSH1 0x40 DUP1 MLOAD PUSH1 0x7 SWAP4 SWAP1 SWAP4 SIGNEXTEND DUP4 MSTORE PUSH1 0x20 DUP4 ADD SWAP2 SWAP1 SWAP2 MSTORE ADD PUSH2 0xFA JUMP JUMPDEST CALLVALUE DUP1 ISZERO PUSH2 0x24A JUMPI PUSH1 0x0 DUP1 REVERT JUMPDEST POP PUSH2 0x1A0 PUSH32 0x0 DUP2 JUMP JUMPDEST CALLVALUE DUP1 ISZERO PUSH2 0x27E JUMPI PUSH1 0x0 DUP1 REVERT JUMPDEST POP PUSH2 0xD7 PUSH2 0x28D CALLDATASIZE PUSH1 0x4 PUSH2 0x90A JUMP JUMPDEST PUSH2 0x552 JUMP JUMPDEST CALLER PUSH1 0x1 PUSH1 0x1 PUSH1 0xA0 SHL SUB PUSH32 0x0 AND EQ PUSH2 0x30F JUMPI PUSH1 0x40 MLOAD PUSH3 0x461BCD PUSH1 0xE5 SHL DUP2 MSTORE PUSH1 0x20 PUSH1 0x4 DUP3 ADD DUP2 SWAP1 MSTORE PUSH1 0x24 DUP3 ADD MSTORE PUSH32 0x4F6E6C79206465646963617465642067656C61746F206D73672E73656E646572 PUSH1 0x44 DUP3 ADD MSTORE PUSH1 0x64 ADD JUMPDEST PUSH1 0x40 MLOAD DUP1 SWAP2 SUB SWAP1 REVERT JUMPDEST PUSH1 0x1 SLOAD PUSH1 0x40 MLOAD PUSH4 0xD47EED45 PUSH1 0xE0 SHL DUP2 MSTORE PUSH1 0x0 SWAP2 PUSH1 0x1 PUSH1 0x1 PUSH1 0xA0 SHL SUB AND SWAP1 PUSH4 0xD47EED45 SWAP1 PUSH2 0x340 SWAP1 DUP6 SWAP1 PUSH1 0x4 ADD PUSH2 0x93A JUMP JUMPDEST PUSH1 0x20 PUSH1 0x40 MLOAD DUP1 DUP4 SUB DUP2 DUP7 GAS STATICCALL ISZERO DUP1 ISZERO PUSH2 0x35D JUMPI RETURNDATASIZE PUSH1 0x0 DUP1 RETURNDATACOPY RETURNDATASIZE PUSH1 0x0 REVERT JUMPDEST POP POP POP POP PUSH1 0x40 MLOAD RETURNDATASIZE PUSH1 0x1F NOT PUSH1 0x1F DUP3 ADD AND DUP3 ADD DUP1 PUSH1 0x40 MSTORE POP DUP2 ADD SWAP1 PUSH2 0x381 SWAP2 SWAP1 PUSH2 0x9CC JUMP JUMPDEST PUSH1 0x1 SLOAD PUSH1 0x40 MLOAD PUSH4 0x1DF3CBC5 PUSH1 0xE3 SHL DUP2 MSTORE SWAP2 SWAP3 POP PUSH1 0x1 PUSH1 0x1 PUSH1 0xA0 SHL SUB AND SWAP1 PUSH4 0xEF9E5E28 SWAP1 DUP4 SWAP1 PUSH2 0x3B4 SWAP1 DUP7 SWAP1 PUSH1 0x4 ADD PUSH2 0x93A JUMP JUMPDEST PUSH1 0x0 PUSH1 0x40 MLOAD DUP1 DUP4 SUB DUP2 DUP6 DUP9 DUP1 EXTCODESIZE ISZERO DUP1 ISZERO PUSH2 0x3CD JUMPI PUSH1 0x0 DUP1 REVERT JUMPDEST POP GAS CALL ISZERO DUP1 ISZERO PUSH2 0x3E1 JUMPI RETURNDATASIZE PUSH1 0x0 DUP1 RETURNDATACOPY RETURNDATASIZE PUSH1 0x0 REVERT JUMPDEST POP POP PUSH1 0x1 SLOAD PUSH1 0x40 MLOAD PUSH4 0x31D98B3F PUSH1 0xE0 SHL DUP2 MSTORE PUSH32 0xCA80BA6DC32E08D06F1AA886011EED1D77C77BE9EB761CC10D72B7D0A2FD57A6 PUSH1 0x4 DUP3 ADD DUP2 SWAP1 MSTORE SWAP5 POP PUSH1 0x0 SWAP4 POP PUSH1 0x1 PUSH1 0x1 PUSH1 0xA0 SHL SUB SWAP1 SWAP2 AND SWAP2 POP PUSH4 0x31D98B3F SWAP1 PUSH1 0x24 ADD PUSH1 0x80 PUSH1 0x40 MLOAD DUP1 DUP4 SUB DUP2 DUP7 GAS STATICCALL ISZERO DUP1 ISZERO PUSH2 0x454 JUMPI RETURNDATASIZE PUSH1 0x0 DUP1 RETURNDATACOPY RETURNDATASIZE PUSH1 0x0 REVERT JUMPDEST POP POP POP POP PUSH1 0x40 MLOAD RETURNDATASIZE PUSH1 0x1F NOT PUSH1 0x1F DUP3 ADD AND DUP3 ADD DUP1 PUSH1 0x40 MSTORE POP DUP2 ADD SWAP1 PUSH2 0x478 SWAP2 SWAP1 PUSH2 0x9E5 JUMP JUMPDEST PUSH1 0x40 DUP1 MLOAD DUP1 DUP3 ADD SWAP1 SWAP2 MSTORE DUP2 MLOAD PUSH1 0x7 DUP2 SWAP1 SIGNEXTEND DUP3 MSTORE PUSH1 0x60 SWAP1 SWAP3 ADD MLOAD PUSH1 0x20 SWAP1 SWAP2 ADD DUP2 SWAP1 MSTORE PUSH1 0x3 DUP1 SLOAD PUSH8 0xFFFFFFFFFFFFFFFF NOT AND PUSH8 0xFFFFFFFFFFFFFFFF SWAP1 SWAP4 AND SWAP3 SWAP1 SWAP3 OR SWAP1 SWAP2 SSTORE PUSH1 0x4 SSTORE POP POP POP POP JUMP JUMPDEST PUSH1 0x0 PUSH2 0x4CE PUSH2 0x5CB JUMP JUMPDEST PUSH1 0x40 MLOAD PUSH1 0x0 SWAP1 CALLER SWAP1 SELFBALANCE SWAP1 DUP4 DUP2 DUP2 DUP2 DUP6 DUP8 GAS CALL SWAP3 POP POP POP RETURNDATASIZE DUP1 PUSH1 0x0 DUP2 EQ PUSH2 0x510 JUMPI PUSH1 0x40 MLOAD SWAP2 POP PUSH1 0x1F NOT PUSH1 0x3F RETURNDATASIZE ADD AND DUP3 ADD PUSH1 0x40 MSTORE RETURNDATASIZE DUP3 MSTORE RETURNDATASIZE PUSH1 0x0 PUSH1 0x20 DUP5 ADD RETURNDATACOPY PUSH2 0x515 JUMP JUMPDEST PUSH1 0x60 SWAP2 POP JUMPDEST POP SWAP1 SWAP3 POP POP POP SWAP1 JUMP JUMPDEST PUSH2 0x526 PUSH2 0x5CB JUMP JUMPDEST PUSH2 0x52E PUSH2 0x625 JUMP JUMPDEST JUMP JUMPDEST PUSH2 0x538 PUSH2 0x5CB JUMP JUMPDEST PUSH2 0x52E PUSH1 0x0 PUSH2 0x67A JUMP JUMPDEST PUSH2 0x54A PUSH2 0x5CB JUMP JUMPDEST PUSH2 0x52E PUSH2 0x6CA JUMP JUMPDEST PUSH2 0x55A PUSH2 0x5CB JUMP JUMPDEST PUSH1 0x1 PUSH1 0x1 PUSH1 0xA0 SHL SUB DUP2 AND PUSH2 0x5BF JUMPI PUSH1 0x40 MLOAD PUSH3 0x461BCD PUSH1 0xE5 SHL DUP2 MSTORE PUSH1 0x20 PUSH1 0x4 DUP3 ADD MSTORE PUSH1 0x26 PUSH1 0x24 DUP3 ADD MSTORE PUSH32 0x4F776E61626C653A206E6577206F776E657220697320746865207A65726F2061 PUSH1 0x44 DUP3 ADD MSTORE PUSH6 0x646472657373 PUSH1 0xD0 SHL PUSH1 0x64 DUP3 ADD MSTORE PUSH1 0x84 ADD PUSH2 0x306 JUMP JUMPDEST PUSH2 0x5C8 DUP2 PUSH2 0x67A JUMP JUMPDEST POP JUMP JUMPDEST PUSH1 0x0 SLOAD PUSH1 0x1 PUSH1 0x1 PUSH1 0xA0 SHL SUB AND CALLER EQ PUSH2 0x52E JUMPI PUSH1 0x40 MLOAD PUSH3 0x461BCD PUSH1 0xE5 SHL DUP2 MSTORE PUSH1 0x20 PUSH1 0x4 DUP3 ADD DUP2 SWAP1 MSTORE PUSH1 0x24 DUP3 ADD MSTORE PUSH32 0x4F776E61626C653A2063616C6C6572206973206E6F7420746865206F776E6572 PUSH1 0x44 DUP3 ADD MSTORE PUSH1 0x64 ADD PUSH2 0x306 JUMP JUMPDEST PUSH2 0x62D PUSH2 0x70D JUMP JUMPDEST PUSH1 0x0 DUP1 SLOAD PUSH1 0xFF PUSH1 0xA0 SHL NOT AND SWAP1 SSTORE PUSH32 0x5DB9EE0A495BF2E6FF9C91A7834C1BA4FDD244A5E8AA4E537BD38AEAE4B073AA CALLER JUMPDEST PUSH1 0x40 MLOAD PUSH1 0x1 PUSH1 0x1 PUSH1 0xA0 SHL SUB SWAP1 SWAP2 AND DUP2 MSTORE PUSH1 0x20 ADD PUSH1 0x40 MLOAD DUP1 SWAP2 SUB SWAP1 LOG1 JUMP JUMPDEST PUSH1 0x0 DUP1 SLOAD PUSH1 0x1 PUSH1 0x1 PUSH1 0xA0 SHL SUB DUP4 DUP2 AND PUSH1 0x1 PUSH1 0x1 PUSH1 0xA0 SHL SUB NOT DUP4 AND DUP2 OR DUP5 SSTORE PUSH1 0x40 MLOAD SWAP2 SWAP1 SWAP3 AND SWAP3 DUP4 SWAP2 PUSH32 0x8BE0079C531659141344CD1FD0A4F28419497F9722A3DAAFE3B4186F6B6457E0 SWAP2 SWAP1 LOG3 POP POP JUMP JUMPDEST PUSH2 0x6D2 PUSH2 0x75D JUMP JUMPDEST PUSH1 0x0 DUP1 SLOAD PUSH1 0xFF PUSH1 0xA0 SHL NOT AND PUSH1 0x1 PUSH1 0xA0 SHL OR SWAP1 SSTORE PUSH32 0x62E78CEA01BEE320CD4E420270B5EA74000D11B0C9F74754EBDBFC544B05A258 PUSH2 0x65D CALLER SWAP1 JUMP JUMPDEST PUSH1 0x0 SLOAD PUSH1 0x1 PUSH1 0xA0 SHL SWAP1 DIV PUSH1 0xFF AND PUSH2 0x52E JUMPI PUSH1 0x40 MLOAD PUSH3 0x461BCD PUSH1 0xE5 SHL DUP2 MSTORE PUSH1 0x20 PUSH1 0x4 DUP3 ADD MSTORE PUSH1 0x14 PUSH1 0x24 DUP3 ADD MSTORE PUSH20 0x14185D5CD8589B194E881B9BDD081C185D5CD959 PUSH1 0x62 SHL PUSH1 0x44 DUP3 ADD MSTORE PUSH1 0x64 ADD PUSH2 0x306 JUMP JUMPDEST PUSH1 0x0 SLOAD PUSH1 0x1 PUSH1 0xA0 SHL SWAP1 DIV PUSH1 0xFF AND ISZERO PUSH2 0x52E JUMPI PUSH1 0x40 MLOAD PUSH3 0x461BCD PUSH1 0xE5 SHL DUP2 MSTORE PUSH1 0x20 PUSH1 0x4 DUP3 ADD MSTORE PUSH1 0x10 PUSH1 0x24 DUP3 ADD MSTORE PUSH16 0x14185D5CD8589B194E881C185D5CD959 PUSH1 0x82 SHL PUSH1 0x44 DUP3 ADD MSTORE PUSH1 0x64 ADD PUSH2 0x306 JUMP JUMPDEST PUSH4 0x4E487B71 PUSH1 0xE0 SHL PUSH1 0x0 MSTORE PUSH1 0x41 PUSH1 0x4 MSTORE PUSH1 0x24 PUSH1 0x0 REVERT JUMPDEST PUSH1 0x40 MLOAD PUSH1 0x1F DUP3 ADD PUSH1 0x1F NOT AND DUP2 ADD PUSH8 0xFFFFFFFFFFFFFFFF DUP2 GT DUP3 DUP3 LT OR ISZERO PUSH2 0x7E9 JUMPI PUSH2 0x7E9 PUSH2 0x7AA JUMP JUMPDEST PUSH1 0x40 MSTORE SWAP2 SWAP1 POP JUMP JUMPDEST PUSH1 0x0 PUSH1 0x20 DUP1 DUP4 DUP6 SUB SLT ISZERO PUSH2 0x804 JUMPI PUSH1 0x0 DUP1 REVERT JUMPDEST DUP3 CALLDATALOAD PUSH8 0xFFFFFFFFFFFFFFFF DUP1 DUP3 GT ISZERO PUSH2 0x81C JUMPI PUSH1 0x0 DUP1 REVERT JUMPDEST DUP2 DUP6 ADD SWAP2 POP PUSH1 0x1F DUP7 DUP2 DUP5 ADD SLT PUSH2 0x831 JUMPI PUSH1 0x0 DUP1 REVERT JUMPDEST DUP3 CALLDATALOAD DUP3 DUP2 GT ISZERO PUSH2 0x843 JUMPI PUSH2 0x843 PUSH2 0x7AA JUMP JUMPDEST DUP1 PUSH1 0x5 SHL PUSH2 0x852 DUP7 DUP3 ADD PUSH2 0x7C0 JUMP JUMPDEST SWAP2 DUP3 MSTORE DUP5 DUP2 ADD DUP7 ADD SWAP2 DUP7 DUP2 ADD SWAP1 DUP11 DUP5 GT ISZERO PUSH2 0x86C JUMPI PUSH1 0x0 DUP1 REVERT JUMPDEST DUP8 DUP8 ADD SWAP3 POP JUMPDEST DUP4 DUP4 LT ISZERO PUSH2 0x8FC JUMPI DUP3 CALLDATALOAD DUP7 DUP2 GT ISZERO PUSH2 0x88A JUMPI PUSH1 0x0 DUP1 DUP2 REVERT JUMPDEST DUP8 ADD PUSH1 0x3F DUP2 ADD DUP13 SGT PUSH2 0x89C JUMPI PUSH1 0x0 DUP1 DUP2 REVERT JUMPDEST DUP9 DUP2 ADD CALLDATALOAD PUSH1 0x40 DUP9 DUP3 GT ISZERO PUSH2 0x8B2 JUMPI PUSH2 0x8B2 PUSH2 0x7AA JUMP JUMPDEST PUSH2 0x8C3 DUP3 DUP10 ADD PUSH1 0x1F NOT AND DUP13 ADD PUSH2 0x7C0 JUMP JUMPDEST DUP3 DUP2 MSTORE DUP15 DUP3 DUP5 DUP7 ADD ADD GT ISZERO PUSH2 0x8D8 JUMPI PUSH1 0x0 DUP1 DUP2 REVERT JUMPDEST DUP3 DUP3 DUP6 ADD DUP14 DUP4 ADD CALLDATACOPY PUSH1 0x0 SWAP3 DUP2 ADD DUP13 ADD SWAP3 SWAP1 SWAP3 MSTORE POP DUP4 MSTORE POP SWAP2 DUP8 ADD SWAP2 SWAP1 DUP8 ADD SWAP1 PUSH2 0x872 JUMP JUMPDEST SWAP11 SWAP10 POP POP POP POP POP POP POP POP POP POP JUMP JUMPDEST PUSH1 0x0 PUSH1 0x20 DUP3 DUP5 SUB SLT ISZERO PUSH2 0x91C JUMPI PUSH1 0x0 DUP1 REVERT JUMPDEST DUP2 CALLDATALOAD PUSH1 0x1 PUSH1 0x1 PUSH1 0xA0 SHL SUB DUP2 AND DUP2 EQ PUSH2 0x933 JUMPI PUSH1 0x0 DUP1 REVERT JUMPDEST SWAP4 SWAP3 POP POP POP JUMP JUMPDEST PUSH1 0x0 PUSH1 0x20 DUP1 DUP4 ADD DUP2 DUP5 MSTORE DUP1 DUP6 MLOAD DUP1 DUP4 MSTORE PUSH1 0x40 DUP7 ADD SWAP2 POP PUSH1 0x40 DUP2 PUSH1 0x5 SHL DUP8 ADD ADD SWAP3 POP DUP4 DUP8 ADD PUSH1 0x0 DUP1 JUMPDEST DUP4 DUP2 LT ISZERO PUSH2 0x9BE JUMPI DUP9 DUP7 SUB PUSH1 0x3F NOT ADD DUP6 MSTORE DUP3 MLOAD DUP1 MLOAD DUP1 DUP9 MSTORE DUP4 JUMPDEST DUP2 DUP2 LT ISZERO PUSH2 0x997 JUMPI DUP3 DUP2 ADD DUP11 ADD MLOAD DUP10 DUP3 ADD DUP12 ADD MSTORE DUP10 ADD PUSH2 0x97C JUMP JUMPDEST POP DUP8 DUP2 ADD DUP10 ADD DUP5 SWAP1 MSTORE PUSH1 0x1F ADD PUSH1 0x1F NOT AND SWAP1 SWAP7 ADD DUP8 ADD SWAP6 POP SWAP4 DUP7 ADD SWAP4 SWAP2 DUP7 ADD SWAP2 PUSH1 0x1 ADD PUSH2 0x962 JUMP JUMPDEST POP SWAP4 SWAP9 SWAP8 POP POP POP POP POP POP POP POP JUMP JUMPDEST PUSH1 0x0 PUSH1 0x20 DUP3 DUP5 SUB SLT ISZERO PUSH2 0x9DE JUMPI PUSH1 0x0 DUP1 REVERT JUMPDEST POP MLOAD SWAP2 SWAP1 POP JUMP JUMPDEST PUSH1 0x0 PUSH1 0x80 DUP3 DUP5 SUB SLT ISZERO PUSH2 0x9F7 JUMPI PUSH1 0x0 DUP1 REVERT JUMPDEST PUSH1 0x40 MLOAD PUSH1 0x80 DUP2 ADD PUSH8 0xFFFFFFFFFFFFFFFF DUP3 DUP3 LT DUP2 DUP4 GT OR ISZERO PUSH2 0xA1B JUMPI PUSH2 0xA1B PUSH2 0x7AA JUMP JUMPDEST DUP2 PUSH1 0x40 MSTORE DUP5 MLOAD SWAP2 POP DUP2 PUSH1 0x7 SIGNEXTEND DUP3 EQ PUSH2 0xA32 JUMPI PUSH1 0x0 DUP1 REVERT JUMPDEST SWAP1 DUP3 MSTORE PUSH1 0x20 DUP5 ADD MLOAD SWAP1 DUP1 DUP3 AND DUP3 EQ PUSH2 0xA49 JUMPI PUSH1 0x0 DUP1 REVERT JUMPDEST POP PUSH1 0x20 DUP3 ADD MSTORE PUSH1 0x40 DUP4 ADD MLOAD PUSH1 0x3 DUP2 SWAP1 SIGNEXTEND DUP2 EQ PUSH2 0xA64 JUMPI PUSH1 0x0 DUP1 REVERT JUMPDEST PUSH1 0x40 DUP3 ADD MSTORE PUSH1 0x60 SWAP3 DUP4 ADD MLOAD SWAP3 DUP2 ADD SWAP3 SWAP1 SWAP3 MSTORE POP SWAP2 SWAP1 POP JUMP INVALID LOG2 PUSH5 0x6970667358 0x22 SLT KECCAK256 NUMBER LOG2 0xE9 SELFBALANCE PUSH30 0xD76C58033E3A0E3C5B332AE16F570F315171B23D6061F55502FE4864736F PUSH13 0x63430008110033000000000000 "},"gasEstimates":{"creation":{"codeDepositCost":"547600","executionCost":"infinite","totalCost":"infinite"},"external":{"currentPrice()":"4516","gelatoMsgSender()":"infinite","getPrice()":"4573","owner()":"2342","pause()":"infinite","paused()":"2377","renounceOwnership()":"infinite","tokenIds()":"2387","transferOwnership(address)":"28408","unpause()":"infinite","updatePrice(bytes[])":"infinite","withdraw()":"infinite"}},"methodIdentifiers":{"currentPrice()":"9d1b464a","gelatoMsgSender()":"c5443082","getPrice()":"98d5fdca","owner()":"8da5cb5b","pause()":"8456cb59","paused()":"5c975abb","renounceOwnership()":"715018a6","tokenIds()":"714cff56","transferOwnership(address)":"f2fde38b","unpause()":"3f4ba83a","updatePrice(bytes[])":"2592c0bf","withdraw()":"3ccfd60b"}},"storageLayout":{"storage":[{"astId":7,"contract":"contracts/SmartOracle.sol:SmartOracle","label":"_owner","offset":0,"slot":"0","type":"t_address"},{"astId":130,"contract":"contracts/SmartOracle.sol:SmartOracle","label":"_paused","offset":20,"slot":"0","type":"t_bool"},{"astId":335,"contract":"contracts/SmartOracle.sol:SmartOracle","label":"pyth","offset":0,"slot":"1","type":"t_contract(IPyth)610"},{"astId":342,"contract":"contracts/SmartOracle.sol:SmartOracle","label":"tokenIds","offset":0,"slot":"2","type":"t_struct(Counter)248_storage"},{"astId":352,"contract":"contracts/SmartOracle.sol:SmartOracle","label":"currentPrice","offset":0,"slot":"3","type":"t_struct(Price)349_storage"}],"types":{"t_address":{"encoding":"inplace","label":"address","numberOfBytes":"20"},"t_bool":{"encoding":"inplace","label":"bool","numberOfBytes":"1"},"t_contract(IPyth)610":{"encoding":"inplace","label":"contract IPyth","numberOfBytes":"20"},"t_int64":{"encoding":"inplace","label":"int64","numberOfBytes":"8"},"t_struct(Counter)248_storage":{"encoding":"inplace","label":"struct Counters.Counter","members":[{"astId":247,"contract":"contracts/SmartOracle.sol:SmartOracle","label":"_value","offset":0,"slot":"0","type":"t_uint256"}],"numberOfBytes":"32"},"t_struct(Price)349_storage":{"encoding":"inplace","label":"struct SmartOracle.Price","members":[{"astId":346,"contract":"contracts/SmartOracle.sol:SmartOracle","label":"price","offset":0,"slot":"0","type":"t_int64"},{"astId":348,"contract":"contracts/SmartOracle.sol:SmartOracle","label":"lastUpdateTimestamp","offset":0,"slot":"1","type":"t_uint256"}],"numberOfBytes":"64"},"t_uint256":{"encoding":"inplace","label":"uint256","numberOfBytes":"32"}}},"userdoc":{"kind":"user","methods":{},"version":1}}}}