{
  "address": "0x5B91C8E7a2DEABC623E6Ab34E8c26F27Cc18bC66",
  "abi": [
    {
      "inputs": [
        {
          "internalType": "address",
          "name": "_gelatoMsgSender",
          "type": "address"
        },
        {
          "internalType": "address",
          "name": "pythContract",
          "type": "address"
        }
      ],
      "stateMutability": "nonpayable",
      "type": "constructor"
    },
    {
      "anonymous": false,
      "inputs": [
        {
          "indexed": true,
          "internalType": "address",
          "name": "previousOwner",
          "type": "address"
        },
        {
          "indexed": true,
          "internalType": "address",
          "name": "newOwner",
          "type": "address"
        }
      ],
      "name": "OwnershipTransferred",
      "type": "event"
    },
    {
      "anonymous": false,
      "inputs": [
        {
          "indexed": false,
          "internalType": "address",
          "name": "account",
          "type": "address"
        }
      ],
      "name": "Paused",
      "type": "event"
    },
    {
      "anonymous": false,
      "inputs": [
        {
          "indexed": false,
          "internalType": "address",
          "name": "account",
          "type": "address"
        }
      ],
      "name": "Unpaused",
      "type": "event"
    },
    {
      "inputs": [],
      "name": "currentPrice",
      "outputs": [
        {
          "internalType": "int64",
          "name": "price",
          "type": "int64"
        },
        {
          "internalType": "uint256",
          "name": "lastUpdateTimestamp",
          "type": "uint256"
        }
      ],
      "stateMutability": "view",
      "type": "function"
    },
    {
      "inputs": [],
      "name": "gelatoMsgSender",
      "outputs": [
        {
          "internalType": "address",
          "name": "",
          "type": "address"
        }
      ],
      "stateMutability": "view",
      "type": "function"
    },
    {
      "inputs": [],
      "name": "getPrice",
      "outputs": [
        {
          "components": [
            {
              "internalType": "int64",
              "name": "price",
              "type": "int64"
            },
            {
              "internalType": "uint256",
              "name": "lastUpdateTimestamp",
              "type": "uint256"
            }
          ],
          "internalType": "struct SmartOracle.Price",
          "name": "",
          "type": "tuple"
        }
      ],
      "stateMutability": "view",
      "type": "function"
    },
    {
      "inputs": [],
      "name": "owner",
      "outputs": [
        {
          "internalType": "address",
          "name": "",
          "type": "address"
        }
      ],
      "stateMutability": "view",
      "type": "function"
    },
    {
      "inputs": [],
      "name": "pause",
      "outputs": [],
      "stateMutability": "nonpayable",
      "type": "function"
    },
    {
      "inputs": [],
      "name": "paused",
      "outputs": [
        {
          "internalType": "bool",
          "name": "",
          "type": "bool"
        }
      ],
      "stateMutability": "view",
      "type": "function"
    },
    {
      "inputs": [],
      "name": "renounceOwnership",
      "outputs": [],
      "stateMutability": "nonpayable",
      "type": "function"
    },
    {
      "inputs": [],
      "name": "tokenIds",
      "outputs": [
        {
          "internalType": "uint256",
          "name": "_value",
          "type": "uint256"
        }
      ],
      "stateMutability": "view",
      "type": "function"
    },
    {
      "inputs": [
        {
          "internalType": "address",
          "name": "newOwner",
          "type": "address"
        }
      ],
      "name": "transferOwnership",
      "outputs": [],
      "stateMutability": "nonpayable",
      "type": "function"
    },
    {
      "inputs": [],
      "name": "unpause",
      "outputs": [],
      "stateMutability": "nonpayable",
      "type": "function"
    },
    {
      "inputs": [
        {
          "internalType": "bytes[]",
          "name": "updatePriceData",
          "type": "bytes[]"
        }
      ],
      "name": "updatePrice",
      "outputs": [],
      "stateMutability": "nonpayable",
      "type": "function"
    },
    {
      "inputs": [],
      "name": "withdraw",
      "outputs": [
        {
          "internalType": "bool",
          "name": "",
          "type": "bool"
        }
      ],
      "stateMutability": "nonpayable",
      "type": "function"
    },
    {
      "stateMutability": "payable",
      "type": "receive"
    }
  ],
  "transactionHash": "0xce8fbdfe48cb8656b89fbc968d8fd3578da0430304298639b18fe49b56ccfa7a",
  "args": [
    "0xbB97656cd5fECe3a643335d03C8919D5E7DcD225",
    "0xA2aa501b19aff244D90cc15a4Cf739D2725B5729"
  ],
  "numDeployments": 1,
  "solcInputHash": "fc5efb94d9cf48b84661fe1fd9dbeab9",
  "bytecode": "0x60a060405234801561001057600080fd5b50604051610be0380380610be083398101604081905261002f916100d9565b6100383361006d565b6000805460ff60a01b191690556001600160a01b03918216608052600180546001600160a01b0319169190921617905561010c565b600080546001600160a01b038381166001600160a01b0319831681178455604051919092169283917f8be0079c531659141344cd1fd0a4f28419497f9722a3daafe3b4186f6b6457e09190a35050565b80516001600160a01b03811681146100d457600080fd5b919050565b600080604083850312156100ec57600080fd5b6100f5836100bd565b9150610103602084016100bd565b90509250929050565b608051610ab261012e60003960008181610250015261029d0152610ab26000f3fe6080604052600436106100ab5760003560e01c80638456cb59116100645780638456cb59146101715780638da5cb5b1461018657806398d5fdca146101b85780639d1b464a14610206578063c54430821461023e578063f2fde38b1461027257600080fd5b80632592c0bf146100b75780633ccfd60b146100d95780633f4ba83a146101035780635c975abb14610118578063714cff5614610137578063715018a61461015c57600080fd5b366100b257005b600080fd5b3480156100c357600080fd5b506100d76100d23660046107f1565b610292565b005b3480156100e557600080fd5b506100ee6104c4565b60405190151581526020015b60405180910390f35b34801561010f57600080fd5b506100d761051e565b34801561012457600080fd5b50600054600160a01b900460ff166100ee565b34801561014357600080fd5b5060025461014e9081565b6040519081526020016100fa565b34801561016857600080fd5b506100d7610530565b34801561017d57600080fd5b506100d7610542565b34801561019257600080fd5b506000546001600160a01b03165b6040516001600160a01b0390911681526020016100fa565b3480156101c457600080fd5b5060408051808201825260008082526020918201528151808301835260035460070b8082526004549183019182528351908152905191810191909152016100fa565b34801561021257600080fd5b506003546004546102249160070b9082565b6040805160079390930b83526020830191909152016100fa565b34801561024a57600080fd5b506101a07f000000000000000000000000000000000000000000000000000000000000000081565b34801561027e57600080fd5b506100d761028d36600461090a565b610552565b336001600160a01b037f0000000000000000000000000000000000000000000000000000000000000000161461030f5760405162461bcd60e51b815260206004820181905260248201527f4f6e6c79206465646963617465642067656c61746f206d73672e73656e64657260448201526064015b60405180910390fd5b60015460405163d47eed4560e01b81526000916001600160a01b03169063d47eed459061034090859060040161093a565b602060405180830381865afa15801561035d573d6000803e3d6000fd5b505050506040513d601f19601f8201168201806040525081019061038191906109cc565b600154604051631df3cbc560e31b81529192506001600160a01b03169063ef9e5e289083906103b490869060040161093a565b6000604051808303818588803b1580156103cd57600080fd5b505af11580156103e1573d6000803e3d6000fd5b50506001546040516396834ad360e01b81527fc96458d393fe9deb7a7d63a0ac41e2898a67a7750dbd166673279e06c868df0a600482018190529450600093506001600160a01b0390911691506396834ad390602401608060405180830381865afa158015610454573d6000803e3d6000fd5b505050506040513d601f19601f8201168201806040525081019061047891906109e5565b604080518082019091528151600781900b825260609092015160209091018190526003805467ffffffffffffffff191667ffffffffffffffff9093169290921790915560045550505050565b60006104ce6105cb565b604051600090339047908381818185875af1925050503d8060008114610510576040519150601f19603f3d011682016040523d82523d6000602084013e610515565b606091505b50909250505090565b6105266105cb565b61052e610625565b565b6105386105cb565b61052e600061067a565b61054a6105cb565b61052e6106ca565b61055a6105cb565b6001600160a01b0381166105bf5760405162461bcd60e51b815260206004820152602660248201527f4f776e61626c653a206e6577206f776e657220697320746865207a65726f206160448201526564647265737360d01b6064820152608401610306565b6105c88161067a565b50565b6000546001600160a01b0316331461052e5760405162461bcd60e51b815260206004820181905260248201527f4f776e61626c653a2063616c6c6572206973206e6f7420746865206f776e65726044820152606401610306565b61062d61070d565b6000805460ff60a01b191690557f5db9ee0a495bf2e6ff9c91a7834c1ba4fdd244a5e8aa4e537bd38aeae4b073aa335b6040516001600160a01b03909116815260200160405180910390a1565b600080546001600160a01b038381166001600160a01b0319831681178455604051919092169283917f8be0079c531659141344cd1fd0a4f28419497f9722a3daafe3b4186f6b6457e09190a35050565b6106d261075d565b6000805460ff60a01b1916600160a01b1790557f62e78cea01bee320cd4e420270b5ea74000d11b0c9f74754ebdbfc544b05a25861065d3390565b600054600160a01b900460ff1661052e5760405162461bcd60e51b815260206004820152601460248201527314185d5cd8589b194e881b9bdd081c185d5cd95960621b6044820152606401610306565b600054600160a01b900460ff161561052e5760405162461bcd60e51b815260206004820152601060248201526f14185d5cd8589b194e881c185d5cd95960821b6044820152606401610306565b634e487b7160e01b600052604160045260246000fd5b604051601f8201601f1916810167ffffffffffffffff811182821017156107e9576107e96107aa565b604052919050565b6000602080838503121561080457600080fd5b823567ffffffffffffffff8082111561081c57600080fd5b8185019150601f868184011261083157600080fd5b823582811115610843576108436107aa565b8060051b6108528682016107c0565b918252848101860191868101908a84111561086c57600080fd5b87870192505b838310156108fc5782358681111561088a5760008081fd5b8701603f81018c1361089c5760008081fd5b888101356040888211156108b2576108b26107aa565b6108c3828901601f19168c016107c0565b8281528e828486010111156108d85760008081fd5b828285018d83013760009281018c0192909252508352509187019190870190610872565b9a9950505050505050505050565b60006020828403121561091c57600080fd5b81356001600160a01b038116811461093357600080fd5b9392505050565b6000602080830181845280855180835260408601915060408160051b87010192508387016000805b838110156109be57888603603f1901855282518051808852835b81811015610997578281018a01518982018b0152890161097c565b508781018901849052601f01601f1916909601870195509386019391860191600101610962565b509398975050505050505050565b6000602082840312156109de57600080fd5b5051919050565b6000608082840312156109f757600080fd5b6040516080810167ffffffffffffffff8282108183111715610a1b57610a1b6107aa565b81604052845191508160070b8214610a3257600080fd5b9082526020840151908082168214610a4957600080fd5b5060208201526040830151600381900b8114610a6457600080fd5b6040820152606092830151928101929092525091905056fea26469706673582212202e01cd9462616fa997bc38e2845b7580bf787d9a2f1820ec07415491eea1b63564736f6c63430008120033",
  "devdoc": {
    "events": {
      "Paused(address)": {
        "details": "Emitted when the pause is triggered by `account`."
      },
      "Unpaused(address)": {
        "details": "Emitted when the pause is lifted by `account`."
      }
    },
    "kind": "dev",
    "methods": {
      "owner()": {
        "details": "Returns the address of the current owner."
      },
      "paused()": {
        "details": "Returns true if the contract is paused, and false otherwise."
      },
      "renounceOwnership()": {
        "details": "Leaves the contract without owner. It will not be possible to call `onlyOwner` functions. Can only be called by the current owner. NOTE: Renouncing ownership will leave the contract without an owner, thereby disabling any functionality that is only available to the owner."
      },
      "transferOwnership(address)": {
        "details": "Transfers ownership of the contract to a new account (`newOwner`). Can only be called by the current owner."
      }
    },
    "version": 1
  },
  "userdoc": {
    "kind": "user",
    "methods": {},
    "version": 1
  },
  "storageLayout": {
    "storage": [
      {
        "astId": 7,
        "contract": "contracts/SmartOracle.sol:SmartOracle",
        "label": "_owner",
        "offset": 0,
        "slot": "0",
        "type": "t_address"
      },
      {
        "astId": 130,
        "contract": "contracts/SmartOracle.sol:SmartOracle",
        "label": "_paused",
        "offset": 20,
        "slot": "0",
        "type": "t_bool"
      },
      {
        "astId": 506,
        "contract": "contracts/SmartOracle.sol:SmartOracle",
        "label": "_pyth",
        "offset": 0,
        "slot": "1",
        "type": "t_contract(IPyth)435"
      },
      {
        "astId": 509,
        "contract": "contracts/SmartOracle.sol:SmartOracle",
        "label": "tokenIds",
        "offset": 0,
        "slot": "2",
        "type": "t_struct(Counter)248_storage"
      },
      {
        "astId": 514,
        "contract": "contracts/SmartOracle.sol:SmartOracle",
        "label": "currentPrice",
        "offset": 0,
        "slot": "3",
        "type": "t_struct(Price)503_storage"
      },
      {
        "astId": 516,
        "contract": "contracts/SmartOracle.sol:SmartOracle",
        "label": "vrfCoordinatorV2",
        "offset": 0,
        "slot": "5",
        "type": "t_address"
      }
    ],
    "types": {
      "t_address": {
        "encoding": "inplace",
        "label": "address",
        "numberOfBytes": "20"
      },
      "t_bool": {
        "encoding": "inplace",
        "label": "bool",
        "numberOfBytes": "1"
      },
      "t_contract(IPyth)435": {
        "encoding": "inplace",
        "label": "contract IPyth",
        "numberOfBytes": "20"
      },
      "t_int64": {
        "encoding": "inplace",
        "label": "int64",
        "numberOfBytes": "8"
      },
      "t_struct(Counter)248_storage": {
        "encoding": "inplace",
        "label": "struct Counters.Counter",
        "members": [
          {
            "astId": 247,
            "contract": "contracts/SmartOracle.sol:SmartOracle",
            "label": "_value",
            "offset": 0,
            "slot": "0",
            "type": "t_uint256"
          }
        ],
        "numberOfBytes": "32"
      },
      "t_struct(Price)503_storage": {
        "encoding": "inplace",
        "label": "struct SmartOracle.Price",
        "members": [
          {
            "astId": 500,
            "contract": "contracts/SmartOracle.sol:SmartOracle",
            "label": "price",
            "offset": 0,
            "slot": "0",
            "type": "t_int64"
          },
          {
            "astId": 502,
            "contract": "contracts/SmartOracle.sol:SmartOracle",
            "label": "lastUpdateTimestamp",
            "offset": 0,
            "slot": "1",
            "type": "t_uint256"
          }
        ],
        "numberOfBytes": "64"
      },
      "t_uint256": {
        "encoding": "inplace",
        "label": "uint256",
        "numberOfBytes": "32"
      }
    }
  }
}