{
  "_format": "hh-sol-artifact-1",
  "contractName": "SmartOracle",
  "sourceName": "contracts/SmartOracle.sol",
  "abi": [
    {
      "inputs": [
        {
          "internalType": "address",
          "name": "_gelatoMsgSender",
          "type": "address"
        },
        {
          "internalType": "address",
          "name": "pythContract",
          "type": "address"
        },
        {
          "internalType": "address",
          "name": "_vrfCoordinatorV2",
          "type": "address"
        }
      ],
      "stateMutability": "nonpayable",
      "type": "constructor"
    },
    {
      "inputs": [
        {
          "internalType": "address",
          "name": "have",
          "type": "address"
        },
        {
          "internalType": "address",
          "name": "want",
          "type": "address"
        }
      ],
      "name": "OnlyCoordinatorCanFulfill",
      "type": "error"
    },
    {
      "anonymous": false,
      "inputs": [
        {
          "indexed": true,
          "internalType": "address",
          "name": "previousOwner",
          "type": "address"
        },
        {
          "indexed": true,
          "internalType": "address",
          "name": "newOwner",
          "type": "address"
        }
      ],
      "name": "OwnershipTransferred",
      "type": "event"
    },
    {
      "anonymous": false,
      "inputs": [
        {
          "indexed": false,
          "internalType": "address",
          "name": "account",
          "type": "address"
        }
      ],
      "name": "Paused",
      "type": "event"
    },
    {
      "anonymous": false,
      "inputs": [
        {
          "indexed": false,
          "internalType": "address",
          "name": "account",
          "type": "address"
        }
      ],
      "name": "Unpaused",
      "type": "event"
    },
    {
      "inputs": [],
      "name": "currentPrice",
      "outputs": [
        {
          "internalType": "int64",
          "name": "price",
          "type": "int64"
        },
        {
          "internalType": "uint256",
          "name": "lastUpdateTimestamp",
          "type": "uint256"
        }
      ],
      "stateMutability": "view",
      "type": "function"
    },
    {
      "inputs": [],
      "name": "gelatoMsgSender",
      "outputs": [
        {
          "internalType": "address",
          "name": "",
          "type": "address"
        }
      ],
      "stateMutability": "view",
      "type": "function"
    },
    {
      "inputs": [],
      "name": "getPrice",
      "outputs": [
        {
          "components": [
            {
              "internalType": "int64",
              "name": "price",
              "type": "int64"
            },
            {
              "internalType": "uint256",
              "name": "lastUpdateTimestamp",
              "type": "uint256"
            }
          ],
          "internalType": "struct SmartOracle.Price",
          "name": "",
          "type": "tuple"
        }
      ],
      "stateMutability": "view",
      "type": "function"
    },
    {
      "inputs": [],
      "name": "owner",
      "outputs": [
        {
          "internalType": "address",
          "name": "",
          "type": "address"
        }
      ],
      "stateMutability": "view",
      "type": "function"
    },
    {
      "inputs": [],
      "name": "pause",
      "outputs": [],
      "stateMutability": "nonpayable",
      "type": "function"
    },
    {
      "inputs": [],
      "name": "paused",
      "outputs": [
        {
          "internalType": "bool",
          "name": "",
          "type": "bool"
        }
      ],
      "stateMutability": "view",
      "type": "function"
    },
    {
      "inputs": [
        {
          "internalType": "uint256",
          "name": "requestId",
          "type": "uint256"
        },
        {
          "internalType": "uint256[]",
          "name": "randomWords",
          "type": "uint256[]"
        }
      ],
      "name": "rawFulfillRandomWords",
      "outputs": [],
      "stateMutability": "nonpayable",
      "type": "function"
    },
    {
      "inputs": [],
      "name": "renounceOwnership",
      "outputs": [],
      "stateMutability": "nonpayable",
      "type": "function"
    },
    {
      "inputs": [],
      "name": "tokenIds",
      "outputs": [
        {
          "internalType": "uint256",
          "name": "_value",
          "type": "uint256"
        }
      ],
      "stateMutability": "view",
      "type": "function"
    },
    {
      "inputs": [
        {
          "internalType": "address",
          "name": "newOwner",
          "type": "address"
        }
      ],
      "name": "transferOwnership",
      "outputs": [],
      "stateMutability": "nonpayable",
      "type": "function"
    },
    {
      "inputs": [],
      "name": "unpause",
      "outputs": [],
      "stateMutability": "nonpayable",
      "type": "function"
    },
    {
      "inputs": [
        {
          "internalType": "bytes[]",
          "name": "updatePriceData",
          "type": "bytes[]"
        }
      ],
      "name": "updatePrice",
      "outputs": [],
      "stateMutability": "nonpayable",
      "type": "function"
    },
    {
      "inputs": [],
      "name": "withdraw",
      "outputs": [
        {
          "internalType": "bool",
          "name": "",
          "type": "bool"
        }
      ],
      "stateMutability": "nonpayable",
      "type": "function"
    },
    {
      "stateMutability": "payable",
      "type": "receive"
    }
  ],
  "bytecode": "0x60c060405234801561001057600080fd5b50604051610d89380380610d8983398101604081905261002f916100f4565b6001600160a01b03811660805261004533610088565b6000805460ff60a01b191690556001600160a01b0392831660a052600180549284166001600160a01b031993841617905560058054919093169116179055610137565b600080546001600160a01b038381166001600160a01b0319831681178455604051919092169283917f8be0079c531659141344cd1fd0a4f28419497f9722a3daafe3b4186f6b6457e09190a35050565b80516001600160a01b03811681146100ef57600080fd5b919050565b60008060006060848603121561010957600080fd5b610112846100d8565b9250610120602085016100d8565b915061012e604085016100d8565b90509250925092565b60805160a051610c1f61016a6000396000818161028b015261035b0152600081816102d8015261031a0152610c1f6000f3fe6080604052600436106100c65760003560e01c8063715018a61161007f57806398d5fdca1161005957806398d5fdca146101f35780639d1b464a14610241578063c544308214610279578063f2fde38b146102ad57600080fd5b8063715018a6146101975780638456cb59146101ac5780638da5cb5b146101c157600080fd5b80631fe543e3146100d25780632592c0bf146100f45780633ccfd60b146101145780633f4ba83a1461013e5780635c975abb14610153578063714cff561461017257600080fd5b366100cd57005b600080fd5b3480156100de57600080fd5b506100f26100ed3660046108ce565b6102cd565b005b34801561010057600080fd5b506100f261010f366004610970565b610350565b34801561012057600080fd5b5061012961057d565b60405190151581526020015b60405180910390f35b34801561014a57600080fd5b506100f26105d7565b34801561015f57600080fd5b50600054600160a01b900460ff16610129565b34801561017e57600080fd5b506002546101899081565b604051908152602001610135565b3480156101a357600080fd5b506100f26105e9565b3480156101b857600080fd5b506100f26105fb565b3480156101cd57600080fd5b506000546001600160a01b03165b6040516001600160a01b039091168152602001610135565b3480156101ff57600080fd5b5060408051808201825260008082526020918201528151808301835260035460070b808252600454918301918252835190815290519181019190915201610135565b34801561024d57600080fd5b5060035460045461025f9160070b9082565b6040805160079390930b8352602083019190915201610135565b34801561028557600080fd5b506101db7f000000000000000000000000000000000000000000000000000000000000000081565b3480156102b957600080fd5b506100f26102c8366004610a77565b61060b565b336001600160a01b037f0000000000000000000000000000000000000000000000000000000000000000161461034c5760405163073e64fd60e21b81523360048201526001600160a01b037f00000000000000000000000000000000000000000000000000000000000000001660248201526044015b60405180910390fd5b5050565b336001600160a01b037f000000000000000000000000000000000000000000000000000000000000000016146103c85760405162461bcd60e51b815260206004820181905260248201527f4f6e6c79206465646963617465642067656c61746f206d73672e73656e6465726044820152606401610343565b60015460405163d47eed4560e01b81526000916001600160a01b03169063d47eed45906103f9908590600401610aa7565b602060405180830381865afa158015610416573d6000803e3d6000fd5b505050506040513d601f19601f8201168201806040525081019061043a9190610b39565b600154604051631df3cbc560e31b81529192506001600160a01b03169063ef9e5e2890839061046d908690600401610aa7565b6000604051808303818588803b15801561048657600080fd5b505af115801561049a573d6000803e3d6000fd5b50506001546040516396834ad360e01b81527fca80ba6dc32e08d06f1aa886011eed1d77c77be9eb761cc10d72b7d0a2fd57a6600482018190529450600093506001600160a01b0390911691506396834ad390602401608060405180830381865afa15801561050d573d6000803e3d6000fd5b505050506040513d601f19601f820116820180604052508101906105319190610b52565b604080518082019091528151600781900b825260609092015160209091018190526003805467ffffffffffffffff191667ffffffffffffffff9093169290921790915560045550505050565b6000610587610684565b604051600090339047908381818185875af1925050503d80600081146105c9576040519150601f19603f3d011682016040523d82523d6000602084013e6105ce565b606091505b50909250505090565b6105df610684565b6105e76106de565b565b6105f1610684565b6105e76000610733565b610603610684565b6105e7610783565b610613610684565b6001600160a01b0381166106785760405162461bcd60e51b815260206004820152602660248201527f4f776e61626c653a206e6577206f776e657220697320746865207a65726f206160448201526564647265737360d01b6064820152608401610343565b61068181610733565b50565b6000546001600160a01b031633146105e75760405162461bcd60e51b815260206004820181905260248201527f4f776e61626c653a2063616c6c6572206973206e6f7420746865206f776e65726044820152606401610343565b6106e66107c6565b6000805460ff60a01b191690557f5db9ee0a495bf2e6ff9c91a7834c1ba4fdd244a5e8aa4e537bd38aeae4b073aa335b6040516001600160a01b03909116815260200160405180910390a1565b600080546001600160a01b038381166001600160a01b0319831681178455604051919092169283917f8be0079c531659141344cd1fd0a4f28419497f9722a3daafe3b4186f6b6457e09190a35050565b61078b610816565b6000805460ff60a01b1916600160a01b1790557f62e78cea01bee320cd4e420270b5ea74000d11b0c9f74754ebdbfc544b05a2586107163390565b600054600160a01b900460ff166105e75760405162461bcd60e51b815260206004820152601460248201527314185d5cd8589b194e881b9bdd081c185d5cd95960621b6044820152606401610343565b600054600160a01b900460ff16156105e75760405162461bcd60e51b815260206004820152601060248201526f14185d5cd8589b194e881c185d5cd95960821b6044820152606401610343565b634e487b7160e01b600052604160045260246000fd5b604051601f8201601f1916810167ffffffffffffffff811182821017156108a2576108a2610863565b604052919050565b600067ffffffffffffffff8211156108c4576108c4610863565b5060051b60200190565b600080604083850312156108e157600080fd5b8235915060208084013567ffffffffffffffff81111561090057600080fd5b8401601f8101861361091157600080fd5b803561092461091f826108aa565b610879565b81815260059190911b8201830190838101908883111561094357600080fd5b928401925b8284101561096157833582529284019290840190610948565b80955050505050509250929050565b6000602080838503121561098357600080fd5b823567ffffffffffffffff8082111561099b57600080fd5b8185019150601f86818401126109b057600080fd5b82356109be61091f826108aa565b81815260059190911b840185019085810190898311156109dd57600080fd5b8686015b83811015610a69578035868111156109f95760008081fd5b8701603f81018c13610a0b5760008081fd5b88810135604088821115610a2157610a21610863565b610a32828901601f19168c01610879565b8281528e82848601011115610a475760008081fd5b828285018d83013760009281018c0192909252508452509187019187016109e1565b509998505050505050505050565b600060208284031215610a8957600080fd5b81356001600160a01b0381168114610aa057600080fd5b9392505050565b6000602080830181845280855180835260408601915060408160051b87010192508387016000805b83811015610b2b57888603603f1901855282518051808852835b81811015610b04578281018a01518982018b01528901610ae9565b508781018901849052601f01601f1916909601870195509386019391860191600101610acf565b509398975050505050505050565b600060208284031215610b4b57600080fd5b5051919050565b600060808284031215610b6457600080fd5b6040516080810167ffffffffffffffff8282108183111715610b8857610b88610863565b81604052845191508160070b8214610b9f57600080fd5b9082526020840151908082168214610bb657600080fd5b5060208201526040830151600381900b8114610bd157600080fd5b6040820152606092830151928101929092525091905056fea264697066735822122083ea41d610aa954d81f0b640bccd0ab297d4a28bff2773be7934a64e6cf547df64736f6c63430008120033",
  "linkReferences": {},
  "deployedLinkReferences": {}
}